:060000000A128A11142906
:10000800F000030EF1000B1922200C1819208C188F
:100018001220710E8300F00E700E09000313831274
:10002800FF3092008C10890A080003138312853070
:100038008F00EE308E000C10850A0800FC3081001D
:100048000B1188010918080021182E282408870098
:100058000814322825088700881432280130A106A0
:0200680008008E
:100200008A010A140F3982073F3406345B344F34B5
:1002100066346D347D3407347F346F3477347C3406
:1002200039345E34793471342D214D2154216121CA
:100230006F213E210508A0001F2126211A29200830
:100240000F39A200200E0F39A30008002208002158
:10025000A40023080021A5000800031783168801C5
:10026000890103138316850187018801091003138F
:100270008312850187018801091008000313831286
:100280008B170B178B160B11031383160C148C147E
:10029000031383120C108C100800031383160F171E
:1002A0008F120F120F14080003138316811281118D
:1002B00001158114011403138312FC3081000B110A
:1002C00008000313831210149010901610160313D5
:1002D000831285308F00EE308E000C10080003135F
:1002E0008312121512179216121692159214921565
:0C02F00003138312FF3092008C100800F2
:04400E00C430FF3F7C
:00000001FF
